:020000040800F2
:10000000D00800204D020008EB1D0008E71D000885
:10001000E91D000899100008F91E00080000000002
:10002000000000000000000000000000EF1D0008BC
:100030009B10000800000000ED1D0008F11D0008E5
:1000400067020008670200086702000867020008EC
:1000500067020008670200089D100008A31000084E
:1000600067020008670200086702000867020008CC
:1000700067020008670200086702000867020008BC
:1000800067020008670200086702000867020008AC
:10009000670200086702000867020008670200089C
:1000A000670200086702000867020008670200088C
:1000B000051E0008111E00086702000867020008FC
:1000C000670200086702000867020008670200086C
:1000D000670200086702000867020008670200085C
:1000E000670200086702000867020008670200084C
:1000F000670200086702000867020008670200083C
:10010000670200086702000867020008670200082B
:10011000670200086702000867020008670200081B
:10012000670200086702000867020008670200080B
:1001300067020008670200086702000867020008FB
:1001400067020008670200086702000867020008EB
:1001500067020008670200086702000867020008DB
:1001600067020008670200086702000867020008CB
:10017000670200086702000867020008000000002C
:10018000670200086702000800F002F800F04EF86D
:100190000AA090E8000C82448344AAF10107DA45E2
:1001A00001D100F043F8AFF2090EBAE80F0013F0E6
:1001B000010F18BFFB1A43F001031847282D000058
:1001C000482D0000103A24BF78C878C1FAD85207E9
:1001D00024BF30C830C144BF04680C6070470000C1
:1001E0000023002400250026103A28BF78C1FBD840
:1001F000520728BF30C148BF0B607047642900F028
:100200002B81002070471FB502F052FE9DE80300CD
:1002100000F012FA00F034FB00F0DCF91FBD10B55D
:10022000002000F0D1FA00F094FB10BD00F0CCFBF0
:100230001146FFF7E8FF02F0ADFA00F095FD03B4B8
:10024000FFF7EDFF03BC00F0CDFD0000094880473B
:1002500009480047FEE7FEE7FEE7FEE7FEE7FEE7A8
:10026000FEE7FEE7FEE7FEE704480549054A064BC0
:1002700070470000F51D000889010008D002002029
:10028000D0080020D0040020D004002070B506461D
:1002900000F0B2F9056806F10B0020F00704B44243
:1002A0009CBF002070BD2B466A68BAB11068A0429E
:1002B00010D304F1080188423CBF5068586007D34E
:1002C0005168101941601168091B01605860146081
:1002D000101D70BD13465268002AE7D121462846FA
:1002E00000F096F90028DED170BD53EA020C00F050
:1002F00069802DE9F04B4FF00006002B1FBFB3FAC9
:1003000083F503FA05F424FA05F65E4012BF16439E
:10031000B2FA82F502FA05F4C5F120051EBF22FAF1
:1003200005FC44EA0C04203556EA044C4FEA144418
:1003300018BF641C4FF000084FF00009904271EBA9
:10034000030C39D3002919BFB1FA81F701FA07F676
:10035000B0FA80F700FA07F6C7F120071EBF20FAAF
:1003600007FC46EA0C062037B6FBF4FCA7EB0507B2
:10037000103F07F01F0BCBF120060CFA0BFB2CFAF9
:1003800006F644BFB3460026202FA4BF5E464FF0BA
:10039000000B5BEA060C08BF4FF0010B19EB0B09D1
:1003A000ABFB027C48EB0608C01B06FB02CC0BFB38
:1003B00003CC71EB0C01C1E70B46024641464846AF
:1003C000BDE8F08B13B54FF000004FF00001AFF324
:1003D0000080BDE81C4070470FB4044910B503AA63
:1003E000029800F0DFF910BC5DF814FBC401002096
:1003F0002DE9F0410E460446002020622046E168C7
:10040000884730B3252805D0D4E901219047206AD8
:10041000401CF2E7E168204600278847050018D015
:10042000A5F14100192802D820354FF40067324663
:10043000294620462760FFF7E1FE40B1012804D09D
:10044000F61D26F007060836D8E7361DD6E72846FB
:10045000DAE7206ABDE8F0812DE9F0410646002484
:1004600010687529314616A510D0AFF3008000281A
:1004700002DA404213A507E031688A0701D512A5C8
:1004800002E0490704D511A5012401E0AFF3008083
:1004900000210A2206F1240709E0B0FBF2FCB0FBC0
:1004A000F2F302FB1C00303078541846491C002837
:1004B000F3D123462A463046BDE8F04100F019B991
:1004C000000000002D0000002B00000020000000B4
:1004D0002DE9F041074615460E461020FFF7D6FEDF
:1004E00004000AD06760C4E9026500F089F8016879
:1004F000216004600020BDE8F0810120FBE74FF09F
:10050000000200B5134694469646203922BFA0E863
:100510000C50A0E80C50B1F12001BFF4F7AF09076F
:1005200028BFA0E80C5048BF0CC05DF804EB890060
:1005300028BF40F8042B08BF704748BF20F8022BA3
:1005400011F0804F18BF00F8012B70474FF0013CAD
:1005500050F8042B51F8043B9A4221D1A2EB0C0332
:10056000934313EACC1317D150F8042B51F8043BF2
:100570009A4215D1A2EB0C03934313EACC130BD18F
:1005800050F8042B51F8043B9A4209D1A2EB0C031A
:10059000934313EACC13DBD04FF00000704700BF49
:1005A000D01A01BAB1FA81F101F0180122FA01F072
:1005B000CB40C1F12001DBB2C0B2C01A2CFA01F36A
:1005C000D11A914311EAC311E6D1704770477047C1
:1005D0007047000070B5064C7C44064D7D4403E036
:1005E000206820448047241DAC42F9D170BD000032
:1005F00028290000282900000048704774020020C4
:1006000000487047A4020020704770477047704749
:1006100038B504460A4600206946AFF3008000283A
:1006200008BF38BD02460099204600F0F3F80120CB
:1006300038BD012000F0C0B9F8B5AFF30080054621
:1006400000200C46102000BF0646A819A0420DD974
:10065000324669460020AFF30080070008BF00F073
:10066000ABF90098A04218BF0546C419FFF7C4FFB4
:1006700005600746F01D20F007004619284600F0E7
:100680000AF8B44208BFF8BDA21B31463868BDE87D
:10069000F84000F0BFB800210160C0E901107047C8
:1006A0001020704770B50446051FFFF7A5FF0068CE
:1006B000002C14BF446870BD002C18BFAC423CBF76
:1006C00020466468F8D301680A18AA4218BF45603A
:1006D00003D12A6805461144016028684119A142E6
:1006E0001CBF6C6070BD6168696021680844286047
:1006F00070BD2DE9F0470D4699469246044600F13B
:1007000024080168880604D5E06921F01001216001
:1007100000E00120A84201DD471B00E00027A1699D
:100720007A1902EB0900081AA0612078C00602D4E9
:100730002046AFF30080002608E0D4E901211AF832
:1007400006009047206A401C761C20624E45F4DB70
:100750002078C0060AD52046AFF3008006E0D4E931
:10076000012130209047206A401C2062381EA7F1EA
:100770000107F4DC07E0D4E9012118F805009047EF
:10078000206A401C2062281EA5F10105F3DC2046EA
:10079000AFF300802078000602D50220BDE8F08784
:1007A0000120FBE7074B70B50D467B4400F051F884
:1007B0000446284600F060F810B14FF0FF3070BDDD
:1007C000204670BDCD1F00002DE9F0410646FFF721
:1007D00017FF8046454613E016B1E068B0420ED1DF
:1007E00020682860D4E90101D8F8007088472046C5
:1007F000FFF758FFD8F80000B842EBD100E02546DB
:100800002C68002CE8D1BDE8F0810000004870475A
:100810006C020020034640688C46002818BF8842BE
:100820003CBF03464068F8D318681844884207D094
:100830000CF1030020F00700001D411A521A014676
:10084000081D0A60FFF72EBF01694A1C0261087883
:10085000704700B58FB0CDE9013100210591054900
:100860007944CDE9031011466846FFF7C1FD0FB08A
:1008700000BD0000E5FFFFFF007B00F08000704737
:1008800010B542485421FFF73AFE41485421FFF782
:1008900036FE40485421FFF732FE3F493B483C4A70
:1008A0003F4B08603D490A603A491960531C036593
:1008B000481C1065012008653B48344A39A178443A
:1008C00000F0B6F920B9384878440A3800F05AFAEE
:1008D00037482F4A35A1784400F0AAF920B93448A6
:1008E00078440A3800F04EFA32482A4A2FA1784458
:1008F00000F09EF920B92F4878440A3800F042FAF7
:1009000040232248DC000021224600F06DF920B18E
:1009100025487844543800F035FA1D4822464023D3
:10092000002100F061F920B121487844543800F0EA
:1009300029FA184822461023002100F055F9002812
:1009400006D01C487844BDE81040563800F01ABA6A
:1009500010BD104870B5006D20F001040B4800F088
:10096000DDF90B4800F0DAF90A4800F0D7F909E0A0
:10097000206D20F00105204600F0D0F92046FFF759
:1009800091FE2C46002CF3D170BD000070010020B8
:10099000C4010020180200202400002028000020AC
:1009A0002C000020720000000826000077000000E4
:1009B000F7250000E725000010B500F0EBF9BDE8D1
:1009C000104000F0DAB970477546FFF71FFFAE46DA
:1009D00005006946534620F00700854618B020B54B
:1009E000FFF742FCBDE820404FF000064FF0000743
:1009F0004FF000084FF0000B21F00701AC46ACE8C7
:100A0000C009ACE8C009ACE8C009ACE8C0098D4633
:100A100070472DE9F04705460C46C86820F42010C1
:100A200040F48000C860800602D5084600F0B3FAA2
:100A3000E06841F282014FF0FF390140022903D002
:100A4000204600F051FAB5E000F42041B1F5004F26
:100A50000FD1C00306D56168E06A884200D8084615
:100A6000606006E02069E0626060606901F024FE79
:100A7000A061A0680022EEB200280DDAE1688B05C3
:100A80000AD4C043A06041F490302260E060606806
:100A9000411C61600670A5E0E0689046226040F469
:100AA0000050E060206968BB606901F00BFE01271F
:100AB00004F12405A0B1A08910F4407F08D0E069BA
:100AC000FFF7E4FB206118B1E06840F4006016E035
:100AD000E7612561E06820F4407040F480600EE03A
:100AE000E069FFF7D3FB00282061F1D0E06840F413
:100AF000006010F4407FE06002D140F48070E0605C
:100B000020696060E06825696FF0010AC1051FD5A2
:100B10006168E06A884200D80846411B04D022463A
:100B2000284600F0EBF9F0BBE068010203D5E5626E
:100B3000C4E9015854E0691CE1626160E16940F474
:100B40008030491EC4E9021030462E70BDE8F0879F
:100B5000010202D500F480320AE06068411C616045
:100B60000670E0680A2E40F48030E06006D0002273
:100B7000E16A6068814203D90B4602E00122F7E78F
:100B80000346A7895B1B7F0503D4E7699F4200DD0D
:100B9000E2B1814200D80146E5620F1AC4E901586A
:100BA000002B09DD00E005E022461946284600F04A
:100BB000A5F908B14846C9E747B1A069E562656093
:100BC000C01BA061E06840F01000E060E068000237
:100BD00008D56168A069E562491B08446560A061A9
:100BE0005046B3E73046B1E770B5C468A50713D0E7
:100BF000650211D4B2F5807F09D0B2F5007F06D02E
:100C0000B2F5806F08D1012300F1240106E05D1EDA
:100C10006FF07F46B54201D3012070BD0161C36111
:100C2000416024F470611143C160002070BD000078
:100C30002DE9F0410C4607461646104600F06EF8C6
:100C40002078611C61280AD0722802D077283CD114
:100C500002E00125002405E00225042402E0082426
:100C600048F2020511F8010B2B2806D0622809D0A2
:100C700011F8010C74280AD00BE045F0030544F08C
:100C80000204EFE745F0040544F00104EAE744F00C
:100C900010043846214601F021FD411C15D00021E9
:100CA000316171604FF40071F560F161706120078E
:100CB00004D530460222002100F09AF8306D40F051
:100CC000010030653046BDE8F0810020FBE72DE9EA
:100CD000F0410D460646104C206DC10704D0410876
:100CE00004D020F00104F7E722460EE05420FFF77D
:100CF000CDFA07000ED0206D47F0010108435421C2
:100D000020653846FFF7FBFB3A4629463046BDE8EA
:100D1000F0418DE70020D6E7700100202DE9F04773
:100D200004464FF000094FF0FF37C568D4E9048648
:100D3000A80707D0204600F00BF9304601F0B0FCC0
:100D4000002802DA3846BDE8F087280502D540467B
:100D5000FFF7A8FC4C212046FFF7D1FB206D20F0C7
:100D6000010020654846EEE710B50446AFF3008069
:100D70002046BDE81040FFF762BA002801D000F01D
:100D800031B8704710B500F041F9BDE81040FFF7E9
:100D9000F4BF000010B5012805D0002103A000F029
:100DA0001BF9012010BD09A1F8E700005349475283
:100DB000544D454D3A204F7574206F66206865612B
:100DC00070206D656D6F7279000000003A204865F3
:100DD0006170206D656D6F727920636F72727570CE
:100DE0007465640001491820ABBEFEE726000200CE
:100DF0002DE9F041044616460D464769007B800701
:100E00002ED0384601F05EFC50BB3EB3012E02D01E
:100E1000022E25D104E0204600F019F905441DE01A
:100E2000384601F049FCE168002841F01001E1601A
:100E300005DA204600F058F80120BDE8F081C9032A
:100E40000BD56268E16A914200D81146A26911444B
:100E50002269891A814200DD08460544002D01DA25
:100E60000220EAE7E16A6068E268814206D2910303
:100E7000E06203D522F4003141F01002A669002798
:100E8000AE4213DCE16A814201D90B4600E0034621
:100E900003EB060C2369ACEB030CAC4506DD814289
:100EA00001D98C4600E084469C4505D1A7602760A7
:100EB00042F02000A5620DE0AD1BE669AE1B814249
:100EC000A66000D90846C01A281A20605819606028
:100ED00022F0200003490840E060002084F84870B8
:100EE000ABE70000BFCFD7FFC16821F4001141F08C
:100EF0008001C16000218160016070472DE9F047E9
:100F0000814614460E464FF0FF383248D56857697F
:100F1000054209D03846A16901F00EFC002811DB1A
:100F20002C48C0430540E5602B46324649463846CA
:100F300001F005FCA16920F00042B21A114400281A
:100F4000A16103D02046FFF7CFFF4046BDE8F08700
:100F500070B504460569C06A6168884200D80846D1
:100F6000E16821F42011E160C90312D5A84208D03C
:100F70002246411B2846FFF7C1FF10B14FF0FF305A
:100F800070BD0020E562C4E90150E06820F48030C3
:100F9000E060002070BD10B50446C06820F020005D
:100FA000E060A16AA06988420DD02046FFF7D0FF1B
:100FB000E06820F4405040F01000E060A06AA061BA
:100FC0002069E062606044F24001E0688843E060CC
:100FD00010BD00001000020070B505460C460A2046
:100FE00000E06D1C00F02CF835B128780028F8D10D
:100FF00002E0641C00F024F814B120780028F8D135
:10100000BDE870400A2000F01BB8000010B5014692
:1010100002A0FFF7E1FF012010BD00005349475235
:10102000545245443A2052656469726563743A20AB
:1010300063616E2774206F70656E3A2000000000B7
:1010400008B569468DF800000320ABBE08BD10B599
:101050000146C268900703D0900607D5886A0AE067
:1010600000F016F801210160881E10BD8B694868E8
:1010700018440B69C01A91F848301BB191F8491017
:10108000401A10BD1103FCD50028FADD401E10BD2A
:10109000004870476C020020FEE77047012000F016
:1010A0001BB8022000F018B870B5044600F02AF909
:1010B0000546601C02D004480078044400F022F980
:1010C000401BA042FAD370BD00000020014801F08F
:1010D0000FBA0000C0000020044910B50A6802429F
:1010E00002D00860FFF7F2FF10BD0000143C014081
:1010F0002DE9F84FDFF8BCA1002201250AF1040B0D
:1011000003264FF00F090BF1040E00BF0B6805FA20
:1011100002F42340A34270D10F7907F00307012F97
:1011200001D0022F16D187684FEA420806FA08FC60
:1011300027EA0C07D1F80CC00CFA08FC4CEA070CA3
:10114000C0F808C04768A7430C79C4F30014944062
:101150003C4344600C79E443A4070AD0C4684FEAD6
:10116000420C06FA0CF7BC438F6807FA0CF72743CA
:10117000C7600C7904F00304022C12D1D40800EBF0
:10118000840CDCF820405707FF0E09FA07F824EA20
:101190000804D1F8108008FA07F848EA0408CCF8E7
:1011A000208004684FEA420C06FA0CF7BC430F7922
:1011B00007F0030707FA0CF7274307604C6814F49D
:1011C000403F70D03C4C276847F480472760246834
:1011D00022F0030704F480440094384C07EB040C1D
:1011E000DCF8084897074FEA177809FA08F7BC4374
:1011F000334FB84202D1002724E054E0314FB842C7
:1012000001D101271EE0304FB84201D1022719E079
:101210002E4FB84201D1032714E02D4FB84201D11F
:1012200004270FE02B4FB84201D105270AE02A4FCF
:10123000B84201D1062705E0284FB84201D107275F
:1012400000E0082707FA08F72743CCF80878DAF80F
:1012500000405746D1F804C09C435FEACC3C00D51F
:101260001C433C60DBF800405F46D1F804C09C435F
:101270005FEA8C3C00D51C433C60DEF800407746BA
:10128000D1F804C09C435FEACC2C00D51C433C60E1
:10129000084F0C373C68D1F804C09C435FEA8C2CA3
:1012A00000D51C433C60521C102AFFF42FAFBDE850
:1012B000F88F0000003C01404438024000300140FB
:1012C000000002400004024000080240000C0240FE
:1012D000001002400014024000180240001C0240AE
:1012E0000069084000D001207047426921EA0203EA
:1012F0000A4043EA0241816170470AB18161704747
:101300000904FBE7014880687047000000000020E6
:101310000248816802781144816070470000002013
:101320000B4810B5016841F400710160016841F497
:1013300080610160016841F480710160032000F068
:101340006FF80F2000F006F800F024F8002010BD20
:10135000003C024070B50D4D04464FF47A71287878
:10136000B1FBF0F00A490968B1FBF0F000F0ECFACB
:1013700048B9102C07D200222146501E00F030F848
:1013800000206C6070BD012070BD000000000020D6
:101390000C0000200A4808B5016841F48041016052
:1013A000006800F4804000900548001F016841F08B
:1013B00080510160006800F08050009008BD00007E
:1013C00044380240002809DB00F01F02012191404F
:1013D0004009800000F1E020C0F8001170470000D3
:1013E000F0B40E4B1B680C46C3F30223C3F1070590
:1013F000042D00D90425191D072901D2002300E07E
:10140000DB1E012606FA05F1491E214099409E4047
:10141000761E16403143F0BC01F008B80CED00E038
:10142000064900F0070208684FF6FF03184040EA3B
:101430000220034A10430860704700000CED00E0F2
:101440000000FA052DE9F0470E46050065D0DFF8EB
:101450001481D8F80000F7B200F00700B04207D2BC
:1014600088F80070D8F8000000F00700B04254D1AE
:1014700028683D4C810712D5400703D5206840F409
:10148000E05020602878000703D5206840F46040D1
:1014900020602068A96820F0F000084320602878C8
:1014A000C0072DD0304968680839012812D00228B9
:1014B00013D0032811D00968890700292DDA216883
:1014C00021F0030101432160FFF71CFF814641F237
:1014D000883A0EE009688903EFE709688901ECE7BB
:1014E000FFF710FFA0EB0901514502D90320BDE829
:1014F000F0872068696800F00C00B0EB810FEFD135
:10150000D8F80010404601F00701B14207D9077032
:10151000006800F00700B04201D00120E7E728781A
:10152000400705D52068E96820F4E05008432060B2
:101530002878000706D52068296920F4604040EA31
:10154000C100206000F018F82168084AC1F30311B7
:10155000515CC8400649086006480068FFF7FAFE7B
:101560000020C4E7003C024008380240BA2E0008C0
:101570000C00002004000020154810B5006810F091
:101580000C02144813D01449042A0FD0082A0ED193
:101590000F4C241F2268236802F03F025B0207D52C
:1015A0002068C0F38810A0FB010106E0084610BDCA
:1015B0002168C1F38811A1FB00010023FEF795FE0D
:1015C0002168C1F30141491C4900B0FBF1F010BD95
:1015D000083802400024F40040787D012DE9F84FDE
:1015E00004006ED02078DFF84C93C007A9F1040501
:1015F0004AD009F104000168C1F38101012908D032
:101600000068C0F3810002280AD1D9F80000400226
:1016100006D52868800337D560680028E1D033E01C
:101620006068B0F5803F10D0B0F5A02F286810D0CA
:1016300020F480302860286820F4802028606068CA
:10164000A8B1FFF75FFE06460DE0286840F4803041
:10165000F4E740F480202860F7E700BFFFF752FE70
:10166000801B642873D828688003F7D50CE0FFF747
:1016700049FE064605E000BFFFF744FE801B6428D4
:10168000F0D828688003F7D42078DFF8AC82800790
:101690004FF0000A3ED5A748001D016811F00C0F5D
:1016A00008D00068C0F3810002280BD1D9F80000EF
:1016B000400207D42868800716D5E068012800D1C9
:1016C00012E033E1E068B8B10120C8F80000FFF78C
:1016D00019FE064605E000BFFFF714FE801B022836
:1016E000C0D828688007F7D52868216920F0F8005D
:1016F00040EAC10028600DE0C8F800A0FFF702FE34
:10170000064604E0FFF7FEFD801B02281FD828686C
:101710008007F7D42078000722D5864F8748616973
:10172000703771B101210160FFF7ECFD064604E05E
:10173000FFF7E8FD801B022809D838688007F7D535
:101740000EE0C0F800A0FFF7DDFD064605E082E0F0
:10175000FFF7D8FD801B02287DD838688007F7D4B2
:101760002078400768D5DFF8CCB100270BF13C0B9F
:10177000DBF80000C0000BD4DBF8001041F0805112
:10178000CBF80010DBF80000012700F0805000903B
:101790006B4E3068C00510D4306840F48070306003
:1017A000FFF7B0FD009005E0FFF7ACFD0099401A8F
:1017B000022850D83068C005F6D55E4EA0686C3659
:1017C00001280FD00528306810D020F001003060CB
:1017D000306820F004003060A068B8B1FFF792FDD7
:1017E00000900FE0306840F00100F4E740F00400A2
:1017F0003060F7E7FFF786FD0099411A41F2883023
:10180000814266D830688007F4D50EE0FFF77AFD94
:10181000009007E0FFF776FD0099411A41F2883009
:10182000814256D830688007F4D42FB1DBF800101D
:1018300021F08051CBF80010A069C8B33D49091DC3
:101840000968C1F3810102294AD00228504607D015
:10185000C8F8600000E03CE0FFF754FD04463BE0C0
:101860004746C8F86000FFF74DFD064605E000BF9B
:10187000FFF748FD801B02282BD828688001F7D489
:10188000D4E907010843A16A2E4A490802EB014145
:10189000626A41EA8211084394F82C1040EA01611F
:1018A000C9F8001001203866FFF72CFD044606E059
:1018B0003EE000BFFFF726FD001B022809D828687C
:1018C0008001F7D534E000BFFFF71CFD001B0228A4
:1018D00002D90320BDE8F88F28688001F4D427E0FE
:1018E0000128F7D0D9F80000E26900F480019142A4
:1018F0001CD1226A00F03F01914217D147F6C07116
:10190000626A0140B1EB821F10D1A26A4FF0FF332F
:1019100000F4403103EB5202B1EB024F06D194F8D0
:101920002C1000F07060B0EB016F01D00120D1E706
:101930000020CFE70438024000004742800E4742B3
:10194000007000400000FFFF10B5401EB0F1807F26
:1019500001D3012010BD4FF0E02460610F2160171A
:1019600000F064FD0020A06107202061002010BD70
:101970007047704770B590F83C20012A32D001249E
:1019800080F83C40022280F83D2003685A689D6838
:1019900022F070060A6832435A60134B02689A427A
:1019A00014D0B2F1804F11D0104B9A420ED0104B90
:1019B0009A420BD00F4B9A4208D00F4B9A4205D057
:1019C0000E4B9A4202D00E4B9A4204D1496825F040
:1019D00080031943916080F83D40002180F83C105D
:1019E000084670BD022070BD0000014000040040A8
:1019F00000080040000C004000040140004001408D
:101A00000018004010B5040003D094F83D0010B158
:101A100007E0012010BD002084F83C00204600F0C3
:101A20001FF8022084F83D00211D206800F0F6F91F
:101A3000012084F8460084F83E0084F83F0084F8D2
:101A4000400084F8410084F8420084F8430084F8A0
:101A5000440084F8450084F83D00002010BD0000DB
:101A600008B501681448B1F1804F14D0134A91426F
:101A700020D1016841F0020101600068002200F0FD
:101A80000200009011461D20FFF7AAFC1D20BDE8B2
:101A90000840FFF797BC016841F001010160006850
:101AA000002200F00100009011461C20FFF798FC76
:101AB0001C20ECE708BD0000403802400004004054
:101AC00090F83D10012901D001207047022180F8D3
:101AD0003D100168CA6842F00102CA6000681149FD
:101AE000884214D0B0F1804F11D00F4988420ED0F7
:101AF0000E4988420BD00E49884208D00D498842D1
:101B000005D00D49884202D00C49884204D1816831
:101B100001F00701062903D0016841F001010160CD
:101B20000020704700000140000400400008004011
:101B3000000C00400004014000400140001800403B
:101B400070B5044690F83C000025012817D0012606
:101B500084F83C60022084F83D002068826822F00E
:101B6000770222F47F4282600868502838D00DDC6A
:101B700020284FD005DC90B3102811D14AE0022074
:101B800070BD302846D040280AD13BE060282FD0D5
:101B900070280DD0B0F5805F03D0B0F5005F12D093
:101BA000012584F83D60002084F83C00284670BD83
:101BB000CB68D1E90121206800F094F920688168A0
:101BC00041F0770109E0CB68D1E90121206800F0FC
:101BD00089F92068816841F480418160E1E719E07A
:101BE000CA684968206800F0FEFB5021206806E0C2
:101BF000CA684968206800F007FC6021206800F08E
:101C0000EAFBCEE7CA684968206800F0ECFB402197
:101C10002068F4E7226801461046F0E7704770B587
:101C20000446006801694FF00005C943890715D4CF
:101C3000C168C943890711D4E91E016101202077D9
:101C4000206880698007204602D0FFF7E7FF04E0A4
:101C500000F098F8204600F096F825772068016992
:101C6000C943490717D4C168C943490713D46FF062
:101C700004010161022020772068806910F4407F10
:101C8000204602D0FFF7CAFF04E000F07BF82046B0
:101C900000F079F8257720680169C943090716D44F
:101CA000C168C943090712D46FF00801016104201B
:101CB00020772068C0698007204602D0FFF7AEFF7A
:101CC00004E000F05FF8204600F05DF8257720681A
:101CD0000169C943C90617D4C168C943C90613D4E9
:101CE0006FF010010161082020772068C06910F4AE
:101CF000407F204602D0FFF791FF04E000F042F859
:101D0000204600F040F8257720680169C943C907DB
:101D100008D1C168C943C90704D1891E01612046A1
:101D200000F032F820680169C943090609D4C16886
:101D3000C943090605D46FF0800101612046FFF711
:101D400017FE20680169C943490609D4C168C9431F
:101D5000490605D46FF040010161204600F042F8C9
:101D600020680169C94389060BD4C168C943890643
:101D700007D46FF0200101612046BDE87040FFF7F5
:101D8000F8BD70BD70477047124910B5884203D145
:101D9000BDE8104000F0B2B80F49884219D10F4891
:101DA0000F4CC069E06000F012FE41EC100B0B48D4
:101DB000303000F08BFA51EC100B00F0D9FD00EE42
:101DC000100AA060BDE81040B8EEC00A034800F059
:101DD0003DBB10BD3000002078000020C000002076
:101DE000100000207047FEE7FEE7FEE770477047EF
:101DF000FFF78EBA0248016841F470010160704734
:101E000088ED00E00148FFF70ABF00003000002025
:101E10000148FFF704BF000078000020F0B5026819
:101E2000254C264D264E274F274B4FF0804CA04285
:101E300009D0604507D0A84205D0B04203D0B842CF
:101E400001D0984204D122F0700E4A6842EA0E0294
:101E5000A0421BD0604519D0A84217D0B04215D07F
:101E6000B84213D0984211D0184DA8420ED0184D48
:101E7000A8420BD0174DA84208D0174DA84205D054
:101E8000164DA84202D0164DA84203D122F4407547
:101E9000CA682A434D6922F080022A4302608A6898
:101EA000C2620A688262A04201D0984201D10969E7
:101EB000016301214161F0BD0000014000040040C8
:101EC00000080040000C00400004014000400140B8
:101ED000004401400048014000180040001C004040
:101EE0000020004010B5846842EA032224F47F44B5
:101EF0000A432243826010BDFEE7000070B5194816
:101F000000250068C4692AE0E068401CE06061695F
:101F100059B1A2696AB1904201D1227A7AB188425C
:101F20001CD1207A012812D018E021880022606894
:101F300002E0218801226068FFF7DFF90DE02188C7
:101F400001226068FFF7D9F90120207205E021889D
:101F500000226068FFF7D1F92572E560E469002C82
:101F6000D2D170BD200000202DE9F0410646244862
:101F700015462DED028BB0EE408A0F46046806E050
:101F80000188B94202D14168B14204D00446E069F7
:101F90000028F5D122E008B342F21071B1FBF2F152
:101FA00000EE901AB8EE600ADFED160A20EE080A7D
:101FB00080EE201ABCEEC10A10EE102AC0E904120D
:101FC000891A81610021C16001720A46BDEC028B51
:101FD00039463046BDE8F041FFF78FB92020FEF7C3
:101FE00055F980462B46B0EE480A3246394600F095
:101FF0001DF8C4F81C80BDEC028BBDE8F081000028
:10200000200000200000C84207490968C9070AD01B
:10201000054980390968C90705D04FF060410A6851
:10202000002AFCD008707047800E00E030B442F205
:102030001075B5FBF3F300EE903A14460022F8EE6B
:10204000600AC2600180446020EE800ADFED080A69
:10205000C26180EE201ABCEEC10A10EE105AC0E92F
:1020600004355B1B83610272204630BCFFF745B923
:102070000000C84230B593B030216846FEF73FFA01
:1020800014210CA8FEF73BFA1D480025016841F019
:1020900080510160006800F080501190194801687B
:1020A00041F4804101600068022400F480401190F6
:1020B0000120039010200490009406940820CDE99C
:1020C0000750A820CDE9090404200B906846FFF7CB
:1020D00085FA08B172B6FEE70CA90F2081E831003D
:1020E0004FF4A0500F904FF48050109005210CA891
:1020F000FFF7A8F9002801D072B6FEE713B030BD93
:10210000403802400070004010B52020FEF7BEF8B5
:10211000024908600021C16110BD000020000020BC
:10212000F0B587B014216846FEF7E9F92E4800247F
:10213000016841F020010160016801F02001059172
:10214000016841F002010160016801F0020105919E
:10215000016841F001010160016801F00101059190
:10216000016841F0080101600068204E00F008009D
:102170004FF400750590002229463046FFF7BDF860
:102180001B4F002206213846FFF7B7F800950125BE
:10219000CDE90154694630460394FEF7A9FF0620B5
:1021A0000090CDE90154694638460394FEF7A0FF3C
:1021B000032000904FF44410CDE9010469460D4816
:1021C000FEF796FF002211460620FFF709F90620C8
:1021D000FFF7F8F8002211460720FFF701F9072062
:1021E000FFF7F0F807B0F0BD3038024000140240AD
:1021F00000040240000C024010B586B000241648CE
:10220000009401940294039404944FF08041059447
:102210000160A721C0E901146321C0E903148021F2
:102220008161FFF7EFFB08B172B6FEE74FF4805013
:10223000009069460848FFF783FC08B172B6FEE7D4
:10224000049404A904480594FFF794FB002801D0E6
:1022500072B6FEE706B010BD3000002010B586B0A3
:1022600000241748009401940294039404941349A1
:102270000594016040F28F61C0E901146321C0E957
:10228000031480218161FFF7BDFB08B172B6FEE740
:102290004FF48050009069460948FFF751FC08B19F
:1022A00072B6FEE7049404A905480594FFF762FBA3
:1022B000002801D072B6FEE706B010BD0004004051
:1022C0007800002080ED000B7047000010B5044638
:1022D0002DED068B53EC102B90ED001B9FED308BFA
:1022E0009FED319B51EC110B00F0F8FC41EC100B11
:1022F00084ED040B94ED0E1B53EC102B51EC110BE1
:1023000000F082FA41EC100B53EC182B84ED0E0B0D
:1023100000F0AEFC02D284ED0E8B0AE094ED0E0BC1
:1023200053EC192B51EC100B00F068FB01D284ED3B
:102330000E9B94ED060B94ED048B53EC102B51EC9B
:10234000180B00F0CBFC94ED0C1B53EC112B00F0A0
:1023500091FB94ED0E0B94ED0A1B41EC190B53EC21
:10236000102B51EC110B00F085FB94ED080B41ECA8
:102370001A0B53EC182B51EC100B00F07BFB53ECB9
:102380001A2B00F041FA53EC192B00F03DFAC4E986
:10239000020184ED068B41EC100BBDEC068B10BDE9
:1023A000000000000088B340000000000088B3C0B7
:1023B00000F1200181EC060B9FED040B80ED000B7A
:1023C00080ED040B80ED060B70470000000000005C
:1023D000000000007047826822F070020A4342F059
:1023E00007018160704710B5036A046A24F0010494
:1023F0000462846924F0F00444EA021423F00A021F
:102400000A438461026210BD10B5036A23F0100311
:1024100003628369046A23F4704343EA023224F0BE
:10242000A00343EA01118261016210BD0907090E90
:10243000002804DB00F1E02080F80014704700F071
:102440000F0000F1E02080F8141D704710B504461D
:102450002DED028BB0EE408A18EE100A1849884222
:1024600002DD9FED188A06E018EE100A1649884230
:1024700001D99FED168ADFED168AA188B5EEC08AD4
:102480002069F1EE10FA4FF0640209DBB0EE480A61
:10249000FFF76AFDE1886422B0EE680A606908E02F
:1024A000B0EE680AFFF760FDE18860696422B1EE72
:1024B000480ABDEC028BBDE81040FFF755BD000097
:1024C0000000C8420000C8420000C8C20000C8C2E4
:1024D0000000000010B5084600F079FA41EC100B3E
:1024E000BDE810400148FFF7EDBE0000F0000020FD
:1024F00070B504464188C068FEF7F2FE05462188A3
:10250000A068FEF7EDFE05EB4000124DC0B2A91C1D
:10251000095C2970227E881A001DC31700EB937393
:1025200023F00303C01AC0B26870012809D0032841
:102530000AD068B108A000BFFDF74EFF28782076CA
:1025400070BDE069401C01E0E069401EE061F5E714
:1025500007A0F1E7100000202F2F2F4552522C6EBC
:1025600065773D25642C6F6C643D25640A0000008E
:102570002F2F2F53414D452C6E65773D25642C6FD1
:102580006C643D25640A0000C06970472DE9F04184
:10259000044606A804F10C0890E8E050A160184633
:1025A00088E8411022806580A780A4F806E02946CB
:1025B000FEF796FE05462188A068FEF791FE05EB22
:1025C00040000749C0B22076085C20760020E06118
:1025D0009FED040B0548FFF775FE2046BDE8F0812E
:1025E000120000200000000000000000F0000020A9
:1025F0007047000000B585B019490220CDE90110EF
:1026000000900422CDE90312164901220B46164818
:10261000FFF7BCFF154A1649FDF75AFF12489FED18
:10262000152B9FED161B9FED170B3030FFF7C0FEEB
:102630000E4A1649FDF74CFF9FED150B0A489FED1A
:10264000161BB0EE402AF0EE602A7030FFF7B0FEA5
:1026500005B0064A0D495DF804EBFDF739BF0000EF
:1026600000040240000C0240C000002000000008EE
:10267000F12500080000000000001440B81E85EBA2
:1026800051B89E3F0000000000000040D523000824
:10269000000000000000F03F7B14AE47E17A843F69
:1026A0006FF40041401804D0012803D0022801D063
:1026B00008147047002070476FF40041401800D0A4
:1026C000002070476FF40041401805D0012802D067
:1026D000022801D0002070470120704770B5040027
:1026E0004FF0FF3511D020783A280ED10CA12046AA
:1026F000FDF72CFF58B10CA12046FDF727FF48B18C
:102700000BA12046FDF722FF38B1284670BD48F2E4
:10271000010070BD48F2020070BD48F2030070BDB8
:102720003A535444494E00003A5354444F555400D0
:102730003A535444455252004FF0FF30704710B5A1
:102740000C466FF40041411813464FF0FF3013D090
:10275000012902D002290FD106E063B114F8010B60
:10276000FFF752FC5B1EF8E72BB114F8010BFFF7E3
:102770004BFC5B1EF8E7002010BD8A68002A01DCD4
:10278000FEF747B9521E8A604A68C0B2531C4B60BC
:1027900010707047FEF7C4FDFFF76CFCFFF7C0FC3C
:1027A000FFF72AFDFFF75AFDFFF7AEFC1148FFF7D0
:1027B00087F910484830FFF783F90F4F41F2883509
:1027C0004FF40076A4F5F06421460C48FFF782FE32
:1027D0002846FEF769FC0948FFF7D6FE011B08A052
:1027E000FDF7FAFD2846FEF75FFC31463846FEF756
:1027F0007CFDE7E73000002000140240C00000200C
:102800006572723D25640A0010B591EA030F48BF56
:1028100083F0004300F16A82841A71EB030C05D245
:10282000121943EB0C03001B61EB0C01DFF824E1F0
:102830004FEA1154A4EB135C1EEA430F18BF9EEA43
:10284000445F73D023EA0E03DCF1200E21EA045129
:1028500043F4801332D322FA0CFE10EB0E0023FA5D
:102860000CFE41EB0E01CCF1200E03FA0EFE10EB34
:102870000E0051F10001B1F5801FCCF1200E32D2D3
:1028800001EB045112FA0EF2BDE8104058BF704738
:10289000401C38BF5FEA420218BF7047002814BFCF
:1028A00020F0010041F100014FEA410313F5001F40
:1028B00038BF7047A1F1C04100F0D4B9012A43EB01
:1028C0000302ACF1200CDCF11F0E32BF4FF0000E02
:1028D00023FA0CF310EB030041EB0451B4EB115F4E
:1028E000D0D0A1EB045101F5801149085FEA300016
:1028F00001EB04510ED350F1000038BF12FA0EFE66
:1029000008D1BDE81040C9E7401C38BF5FEA420269
:10291000CAD1C3E7BDE810404FEA410313F5001FD9
:1029200038BF7047A1F1C04100F09CB99EEA445FF6
:1029300008D011EA5E0FBDE8104004BF01F000416D
:1029400000207047BDE8104070B500F03DF900BFB1
:1029500064FBBE3E0000E0FF491058BFC1F140419A
:102960005B1058BFC3F140438B42EFF300807047C8
:102970004FEA41034FEA5353A3F58063D3F11E039B
:10298000C8BFD3F1210C0CDD4FF0004242EAC12256
:1029900042EA505232FA03FC8CEAE17CACEBE17083
:1029A0007047102BC4BF0020704703F5787CBCF142
:1029B000FF3F04D06FF0004282EA2100704770B5FB
:1029C00000F002F94992248000207047F2E710F0ED
:1029D000004248BF4042B0FA80F310FA03F10AD037
:1029E000C3F11D0303F580634FEA415002EB03522C
:1029F00002EBD12170474FF00000704751EA030C01
:102A000017D41CF5801F58BFBCF5801F00F106804D
:102A1000994218BF704708BF9042704707D711F519
:102A2000801F58BF13F5801F19D4994270478942FF
:102A300070471CF5801F08D5BCF5801FF7D58B4269
:102A400018BF704708BF824270474FF4001C1CEB50
:102A5000410F38BF1CEB430F01D28B42704770B55A
:102A600000F0B2F8922449004FF000514FF080532B
:102A7000FFF772BFDFF848C170B51CEA111E1EBF18
:102A80001CEA13159EEA0C0F95EA0C0F00F06F80FC
:102A900081EA030423EA4C134EEAD47E21EA4C1166
:102AA00041F4801143F48013AE44A1FB024CA0FB1F
:102AB0000365AEF17F7E361955EB0C05A1FB034C87
:102AC0004CF10003A0FB021C16EB0C06654153F110
:102AD0000003094218BF46F0010613F4007F0BD132
:102AE0004FEA03314FEA0530340341EA155140EA19
:102AF00016506FF003020AE04FEAC3214FEAC520E7
:102B0000F40241EA555140EA56506FF0020202EBDE
:102B10002E4201EB025585EACE710AD05FEA440CE1
:102B200018BF24F0004450F1000041F1000120EAF8
:102B3000D47040F2FE7C624500D270BDA84214BF42
:102B40004FF080444FF04044002E08BF0024BEF1F7
:102B5000806FA8BFA1F1C041BDE8704080F28280C3
:102B60004FF0000001F1C04101F0004170479EEAC2
:102B70000C0F0CEA131518BF95EA0C0F06D04FF096
:102B8000000081EA030E0EF0004170BD00F01CF859
:102B90008900013E00F007B800F009B84FEA430C85
:102BA0005FEA5C5C08D081EA030100F05BB84FEAA1
:102BB000410C5FEA5C5CF6D14FF0000001497047C0
:102BC0000000FF070000F87F0EF1020E2EF0030E4A
:102BD0005EF8046B364205D4012A43EB030515F574
:102BE000001F12D8012841EB010C1CF5001F0CD866
:102BF0000ED14FEAD17C15F5001F0CEB4C0C0CF1FB
:102C0000020C08BF4CEBD37C04E04FF0080C01E051
:102C10004FEAD37C0CEB4C0526FA05F606F00706C6
:102C2000B6F1040C06D20EEB860CBDE870404CF0F9
:102C3000010C6047DFE80CF0090B02024FF0004185
:102C40004FF00000A1F5002170BD19461046012883
:102C500051EB010418BFD4F5001484BF002001F02B
:102C6000004170BD0808A0F500114FEA310170471E
:102C700053EA010C17D41CF5801F58BFBCF5801F08
:102C800000F106808B4218BF704708BF8242704730
:102C900007D713F5801F58BF11F5801F19D48B4239
:102CA00070479B4270471CF5801F08D5BCF5801FFC
:102CB000F7D5994218BF704708BF904270474FF44C
:102CC000001C1CEB430F38BF1CEB410F01D2994293
:102CD00070470FB40CBC03BCFFF7C1BE10B591EA3E
:102CE000030F48BF83F000433FF596AD841A71EBA4
:102CF000030C07D212198CF0004C43EB0C03001BA1
:102D000061EB0C01DFF8A4E14FEA1154A4EB135C72
:102D10001EEA430F18BF9EEA445F00F0B08023EA2A
:102D20006E03524221EA0451C3EB6E0338BF5B1EAF
:102D3000DCF1200E25D322FA0CFE10EB0E0043FA34
:102D40000CFE41EB0E01CCF1200E03FA0EFE10EB4F
:102D50000E0051F10001CCF1200E29D412FA0EF22E
:102D600001EB0451BDE8104058BF7047401C1CBF28
:102D7000B2F1004F704700280CBF491C20F0010041
:102D8000704712EB020E43EB030218BF4FF0010E27
:102D90004EEA4202ACF1200CDCF11E0E54D943FA8B
:102DA0000CFE10EB0E0051F1FF31CCF11E0ED5D50B
:102DB0000EF1010E12FA0EFE404141EB010101EB52
:102DC000445C5FEA5C5C10D910EBDE7001EB0451EF
:102DD00038BFBEF1004FBDE8104018BF7047002853
:102DE0000CBF491C20F00100704730D24FEAD42CB0
:102DF00011F5001124F400641BD0B1FA81F20B3AF2
:102E0000A41AA41ED2F12003914030FA03F319430F
:102E1000904001EBCC71002C01EB0451BDE8104057
:102E2000A8BF704701F1C0414FF0000001F0004120
:102E30007047B0FA80F310FA03F100D110BDE41A24
:102E4000173C4805C90AE4E701EB045110BD4910DD
:102E500001EB0451BDE810404FEA300002E04FF0B2
:102E6000000170474A0008BF0042F8D0B2F5001FC9
:102E700028BF704701F000414FF0000070479EEA04
:102E8000445F07D011EA5E0FBDE8104004BF002187
:102E900000207047BDE8104070B5FFF795FE00BFF9
:102EA00040DFF63E83F00041104670470000E0FF2F
:102EB0004FF04070E1EE100A704700000000000083
:102EC000000001020304060708093A535444494E1E
:102ED000003A5354444F5554003A535444455252C7
:102EE00000000000082F0008000000203000000053
:102EF000C4010008382F000830000020A00800009E
:102F0000E0010008F1F6FFFF0100000010000000E2
:102F1000000000000024F400000000010302000093
:102F200000000000000000000000000000000000A1
:082F3000000000000000000099
:040000050800018965
:00000001FF
